:100000000C9435000C945D000C945D000C945D0024
:100010000C945D000C945D000C945D000C945D00EC
:100020000C945D000C945D000C945D000C945D00DC
:100030000C945D000C945D000C945D000C945D00CC
:100040000C946E020C945D000C943C020C9416020D
:100050000C945D000C945D000C945D000C945D00AC
:100060000C945D000C945D00CB0311241FBECFEFF8
:10007000D8E0DEBFCDBF11E0A0E0B1E0EEE4F8E0F3
:1000800002C005900D92A631B107D9F727E0A6E18D
:10009000B1E001C01D92AA39B207E1F710E0C5E353
:1000A000D0E004C02197FE010E941A04C433D10796
:1000B000C9F70E94B8020C9425040C940000CF925A
:1000C000DF92EF92FF920F931F93CF93DF936C0118
:1000D0007A018B01C0E0D0E0CE15DF0581F0D801B8
:1000E0006D918D01D601ED91FC910190F081E02D93
:1000F000C6010995892B11F02196EECF7E01C7012B
:10010000DF91CF911F910F91FF90EF90DF90CF90F3
:100110000895089580E090E00895FC01538D448D8A
:10012000252F30E0842F90E0821B930B541710F0A2
:10013000CF96089501970895FC01918D828D9817AF
:1001400061F0828DDF01A80FB11D5D968C91928DBB
:100150009F5F9F73928F90E008958FEF9FEF0895B8
:10016000FC01918D828D981731F0828DE80FF11D81
:10017000858D90E008958FEF9FEF0895FC01918D9C
:10018000228D892F90E0805C9F4F821B91098F7395
:10019000992708958DEF96E00E94BE0021E0892BFB
:1001A00009F420E0822F0895FC01848DDF01A80F5F
:1001B000B11DA35ABF4F2C91848D90E001968F738F
:1001C0009927848FA689B7892C93A089B1898C91AE
:1001D000837080648C93938D848D981306C00288FD
:1001E000F389E02D80818F7D80830895EF92FF92C7
:1001F0000F931F93CF93DF93EC0181E0888F9B8D4A
:100200008C8D981305C0E889F989808185FD26C009
:10021000F62E0B8D10E00F5F1F4F0F731127E02E8E
:100220008C8DE8120CC00FB607FCFACFE889F9896B
:10023000808185FFF5CFCE010E94D400F1CF8B8D58
:10024000FE01E80FF11DE35AFF4FF0829FB7F894CB
:100250000B8FEA89FB89808180620AC09FB7F8947E
:10026000EE89FF896083E889F989808183708064E1
:1002700080839FBF81E090E0DF91CF911F910F912C
:10028000FF90EF900895CF93DF93EC01888D882342
:10029000C9F0EA89FB89808185FD05C0A889B989F3
:1002A0008C9186FD0FC00FB607FCF5CF808185FFCE
:1002B000F2CFA889B9898C9185FFEDCFCE010E943C
:1002C000D400E7CFDF91CF91089580E090E0892BB3
:1002D00029F00E94CA0081110C94000008958E300C
:1002E00008F08E508770806480937C0080917A0043
:1002F000806480937A0080917A0086FDFCCF8091A3
:1003000078002091790090E0922B08953FB7F894FF
:100310008091170190911801A0911901B0911A01D3
:1003200026B5A89B05C02F3F19F00196A11DB11D50
:100330003FBFBA2FA92F982F8827820F911DA11D8B
:10034000B11DBC01CD0142E0660F771F881F991FC8
:100350004A95D1F708958F929F92AF92BF920F93D3
:100360001F93CF93DF93CDB7DEB7A1970FB6F89465
:10037000DEBF0FBECDBF19A2423008F44AE08E01A5
:100380000F5D1F4F842E912CA12CB12CA50194013F
:100390000E94F803E62FB901CA0101501109EA30A1
:1003A00014F4E05D01C0E95CD801EC93232B242B0D
:1003B000252B61F70115110571F0F801019000205E
:1003C000E9F73197AF01401B510BB8018DEF96E073
:1003D0000E945F0002C080E090E0A1960FB6F89402
:1003E000DEBF0FBECDBFDF91CF911F910F91BF90A8
:1003F000AF909F908F90089542E050E062E171E0ED
:100400008DEF96E00C945F00CF93DF93BC0180E00A
:1004100090E04AE00E94AB01EC010E94FC018C0FCD
:100420009D1FDF91CF9108950E9420041F920F928B
:100430000FB60F9211242F933F934F935F936F93B7
:100440007F938F939F93AF93BF93EF93FF938DEF22
:1004500096E00E94D400FF91EF91BF91AF919F91E0
:100460008F917F916F915F914F913F912F910F905D
:100470000FBE0F901F9018951F920F920FB60F92FC
:1004800011242F938F939F93EF93FF93E0910D0788
:10049000F0910E078081E0911307F091140782FD1F
:1004A00012C09081809116078F5F8F73209117077C
:1004B000821751F0E0911607F0E0E350F94F958F65
:1004C0008093160701C08081FF91EF919F918F91DA
:1004D0002F910F900FBE0F901F9018951F920F92A3
:1004E0000FB60F9211242F933F938F939F93AF9347
:1004F000BF9380911B0190911C01A0911D01B091AF
:100500001E013091160123E0230F2D3720F40196B0
:10051000A11DB11D05C026E8230F0296A11DB11D26
:100520002093160180931B0190931C01A0931D0141
:10053000B0931E018091170190911801A0911901AB
:10054000B0911A010196A11DB11D809317019093DE
:100550001801A0931901B0931A01BF91AF919F9117
:100560008F913F912F910F900FBE0F901F90189574
:10057000789484B5826084BD84B5816084BD85B57E
:10058000826085BD85B5816085BD80916E0081608A
:1005900080936E0010928100809181008260809330
:1005A0008100809181008160809381008091800032
:1005B0008160809380008091B10084608093B1005D
:1005C0008091B00081608093B00080917A00846057
:1005D00080937A0080917A00826080937A00809183
:1005E0007A00816080937A0080917A00806880939D
:1005F0007A001092C100E0910D07F0910E0782E0A1
:100600008083E0910907F0910A071082E0910B07BF
:10061000F0910C0780E1808310921507E09111079B
:10062000F091120786E08083E0910F07F0911007A8
:10063000808180618083E0910F07F09110078081B5
:1006400088608083E0910F07F091100780818068B7
:100650008083E0910F07F091100780818F7D808368
:100660005BEFE52E56E0F52EC091FB06D091FC061F
:100670008EE00E946F018E01000F111FF801E153FF
:10068000FA4F918380838FE00E946F01F801ED554E
:10069000FB4F9183808380E10E946F01F801E9584C
:1006A000FC4F918380832FB7F89480911B01909128
:1006B0001C01A0911D01B0911E012FBFCC0FDD1FA9
:1006C000CC0FDD1FC15EDE4F88839983AA83BB8375
:1006D0008091FB069091FC0601969093FC06809316
:1006E000FB068639910571F5CFECD5E093EA892EAA
:1006F00094E0992E27E7A22E23E0B22E0FE111E01D
:10070000899199910E940402F401819191914F0184
:100710000E940402F501819191915F010E940402FF
:10072000F80161917191819191918F014AE00E944C
:10073000AB010E94FC01EC16FD0611F71092FC06BD
:100740001092FB060E9486014B015C0183E0482E5B
:10075000512C612C712C0E948601DC01CB0188197F
:100760009909AA09BB09883E9340A105B10598F3F0
:10077000F1E04F1A51086108710828EE820E23E05B
:10078000921EA11CB11C411451046104710419F79B
:100790000E94650169CFEDEFF6E01382128288EEC8
:1007A00093E0A0E0B0E084839583A683B78384E0E0
:1007B00091E09183808385EC90E09587848784EC39
:1007C00090E09787868780EC90E0918B808B81EC1E
:1007D00090E0938B828B82EC90E0958B848B86ECFF
:1007E00090E0978B868B118E128E138E148E089547
:1007F000A1E21A2EAA1BBB1BFD010DC0AA1FBB1F25
:10080000EE1FFF1FA217B307E407F50720F0A21B96
:10081000B30BE40BF50B661F771F881F991F1A9403
:1008200069F760957095809590959B01AC01BD012D
:10083000CF010895EE0FFF1F0590F491E02D09946C
:0E08400081E090E0F8940C942504F894FFCF2A
:10084E0000000000F6005F008D004301BE009C001A
:06085E00B0000D0A0000CD
:00000001FF
